:20000000004B0020C5420100FDC90110FDC90110FDC90110FDC90110FDC90110FDC9011063
:1C002000FDC90110FDC90110FDC90110FDC90110FDC90110FDC901103BCA0110A4
:20003C0038C40D00C80000008100000032000F0100C50D00900100004000000096000501D1
:20005C00952B0D00C80000002200000032000F02000000000000000000000000000000008A
:20007C00000000000000000000000000000000000000020000000200020002000000030059
:20009C00040001000000020000000000000000000500010000000700060001000000030026
:2000BC0007000800000000000F0001000100FF0010000800000000001800080000000000CD
:2000DC002200020000000000360001000600000000000000000F0000000000000000000094
:2000FC000000000000000300FFFF00000403FFFF0000FFFF0F00E8030005401F031000016E
:20011C0001000000FF3F0F0008000E0000000000000000000300010F000009010000000042
:20013C000000000000000000000000000000000000000000000000000000000000000000A3
:20015C000000000000000000AD00000100000000FFFFFFFFFFFFFFFF9A1000000000000033
:20017C00000000000000000000000000000000000000000000000000000000000000FAFA6F
:20019C0014000000000000000000000100000101000000000000000000000000000000002C
:2001BC00000000000000000000000000000000000000000000000000000000000000000023
:2001DC0000000000000000000000000000000000000000780008020030000A0000013636DA
:2001FC0001010001020100010301000104010606080400000C0100340D01000F1004010146
:20021C00140100FF1608000020020000220100FF23010001240100FE2501000826020000AE
:20023C0028010001290100012A0200002C01000F2E0200003001000131010008320200FF16
:20025C0034010007350102FF360100003701000138010001390100FF3A01000F3C0200FFA5
:20027C003E01010F3F0100014001041F41010001420100FF43010080440800004E01000882
:20029C004F01000F50010001510100FF5201000A5301008954010001580400005C040000F4
:2002BC006004000064040000680400006C0400007004000074040000780400007C04000092
:2002DC00800100FF810100018201000183010102840100010008000000000000000008045A
:2002FC00FA000000FFFFFF000C1100000000000000001D1100000000000000002E010F0062
:20031C000000FA0000002F0100000000FA000000300100000000FF0000003101000000003B
:20033C00FF00000032010000000003000000330100000000030000003401000000000100FF
:20035C000000350200000000FFFF0000370200000000FF000000390200000000FF000000DA
:20037C003B0200000000FFFF00003D0100000000FF0000003E0100000000010000003F0169
:20039C00000000000100000040010000000007000000412000000000000000006102000034
:2003BC000000FFFF0000630800000000000000006B080000000000000000730800000000CA
:2003DC00000000007B08000000000000000083020500000058020000850100000000100004
:2003FC00000086020000000032000000880200000000320000008A02000000000A000000D5
:20041C00000105090004081000040810020402010101010902000120181A18182C34041E5D
:20043C00000C0E020B040B0A070800110F00A6AAACA4A9A9A399B19ABCB6A8313117191AF2
:20045C0021241B1D1F31313331313118191A22311C1E20313134310000000500BD00B70084
:20047C00B100BC001C00300038000800380102000000000002000000020000000A0000001E
:20049C0002000000020001000000000000000000000000000000000000000000000000003B
:2004BC00000000000E000000C003000080070000000F0000001E0000003C000000780000E7
:2004DC0000F0000000E0010000C003000080070000000F0000001E0000003C000000780004
:2004FC000000F0000000F000010171010101010111010101310101010101800100011001AB
:20051C0061013B001400630173017201620143010001130106013D01350004011201000174
:20053C0000010001000104010401330133013C0144013201360000010001650100013500A1
:20055C00810100010501820183010001660100010001080109010302710230016002110254
:20057C00700201020202020280020002100261023A00410063027302720262024302000275
:20059C00130238000002000204021202000200020002000204020402370037003C024402CE
:2005BC0000023900000200026502000235028102000205028202830200026602000200023D
:2005DC000802090203047104020460041104700402040204010402040004100461040004E3
:2005FC0014046304730472046204430400041304060400040004040412040004000400046F
:20061C0000045104640000040004000444040004000400040004650400043504810464000E
:20063C00050400048304000466040004000408040904000000712D01000051010100022F58
:20065C004A000000DB760100012F4A000000DB7601000351DB000000DB76010004317601E9
:20067C000000DB7601000143760100013D76010001DB76010001DB76010001DB76010000A3
:20069C00A949010001DB76010001DB76010001DB76010001DB7601000243760100023D768E
:2006BC00010002DB76010000A949010002DB76010002DB76010002893A010002DB76010014
:2006DC00040514000000DB7601000343760100033D760100032F4A0000032F4A000003DB45
:2006FC007601000351DB000003DB76010000A949010003DB76010003DB7601000443760188
:20071C0000043D760100042F4A0000042F4A0000042F4A0000040514000004DB7601000417
:20073C00DB760100042B76010000A949010001040001040000333333333333333333333377
:20075C00333333333303010F00000000000000000000000000000000FFFFFFFFFFFFFFFF73
:20077C00FFFFFFFFFFFFFFFFFF464854657374000000000000000000000000000000000038
:20079C000000000000000000000000005907000001000000A80A0000080000004A070000D1
:2007BC0001123456789ABCDEF00000000000000000000000000000000300710030016000DF
:2007DC001100700031022003500480000700100061000000140063007300720062004300D9
:2007FC000000130006000000000004001200000000000000000004000400370037003C02FA
:20081C0044000000000000000000650000003500810000000500000083000000660000006F
:20083C000000080009000103710301030103010301030103220302030103000310030003B8
:20085C00000300030003000300030003420300032403060300030003040312032503230382
:20087C0025032303040304030003000300034403000300032303000365032100350381033C
:20089C0000030503000300030003000325032303080309038F0000008F0001008F00020010
:2008BC008F000300900000018F00010190000002900000038F0001048F0000058F00080480
:2008DC008F0000048A000006510000007F0001003F0004003F0002003F0001007F000200C3
:2008FC007B756E6B6E6F776E2D696E7374616E63652D6E616D657D007B656D7074792D6944
:20091C006E7374616E63652D6E616D657D00C0467B7374617469632D696E7374616E6365F9
:20093C002D6E616D657D000000000102030410000810182004040810181C10040810181C32
:20095C000000000008000000000000002000000040000000600000000000000006000000AD
:20097C00020000008600000082000000000000000000000000010000000000000000000050
:20099C0000000000000000000000000000000000000000000000000000000000060880802D
:2009BC00070880800D2007C00E2007C01400C0800240008003008080094000800840008079
:2009DC000A400080FE00000079090100312B0100E37501005D9B0000CDA900006D760100A8
:2009FC007F3D010099CB0000737601009103010038140000240A000035730100457301005F
:200A1C006573010055730100B559010015630100D95C01002E0000000010004006000000D6
:200A3C0015000000FF000000000000000302FFFF7C2D002020000000010300000000000096
:200A5C007BC80110C5BC0110D9B2011033C20110BDAD0110C1B101106DBA011065BB01108B
:200A7C001DC00110ED48010000000000FFFFFFFFFFFFFFFF0000000000000000010101013A
:200A9C0000C201000300000000000000000000000000000000000000000000000000000074
:200ABC000000000000000000000000000C0A00002C24002004000000000000000000000090
:200ADC0014000000040B00001C000000FFFFFFFF0000000000000000000000003A01000084
:200AFC0000000000000000001C0000000000000000000000180B0000000000000800000093
:200B1C000000000000000000B5CA0000B1290100000000000000000101010000C33B3D3AE7
:200B3C005D3A713AA10A8F3A0F3BB309495E850A2F3B853B0100000000000000000000007C
:200B5C000000010000000100001610160E18151C0212032418580302100258010B010101BB
:200B7C000101010101010101080102010100FF7F0200000000000000FFFFFFFF00000000C8
:200B9C00004002400B00000027000000FF000000FF0001000000000000000000E409000099
:200BBC00602A0020340A000041B5011095A6011015B8011000BE040A00BE0208FFFFFFFF70
:200BDC00FFFFFFFF3545251502030504002D00209C0B0000FF000000000000001D350100F5
:200BFC00E56B0100060005000000004000000000000000000100000097760100477701006F
:200C1C00E31201009D760100E93C01000D1701003B7701000A00000050230020A55B010012
:0C0C3C005377010085BA00000B76010020
:200C48002DE9F04FB94C0546A07AADF1340DC0000FF0E2FB0028089000F0A88116F03FFD37
:200C68000B900AA9822007F0BDFBBDF82800002834D14FF000084FF6FF76ADF8288024E071
:200C8800ADF81460BDF82800ADF81660FF210822ADF8100006A810F0E7FAA77A57B14346FB
:200CA8001946089AC8007F1E01F10101135010448680F6D18DF82480D42004A905F0D8FCBB
:200CC800BDF82800401CADF82800A088BDF828108842D5DC82200AA905F0CAFCC34F002034
:200CE800A0464FF6FF79A2463988ADF8280006E0BE4FBDF828003988401CADF82800BDF864
:200D08002800814240F34281B94800784FF0000B01265C4608E0BAF80600641CA4B23CE0CC
:200D2800B348641CA4B20078A04208DC002EDFD1BBF1000F2ED1E87F0028D9D02AE0BDF80D
:200D480028008DF802406946ADF80000D02007F049FB0028E4D19DF80C30012B08D19DF8D5
:200D68000B0028B90DF1030016F028F80028BFD12F7D002F0CBF052209225E469F42CFD183
:200D88000DF1030005F1150115F078FB0028C7D04FF0010BB8F806000024A04265DDBDF809
:200DA8002800ADF802406946ADF80000D12007F019FB0028AFD1BDF804008145ABD0ADF885
:200DC800100004A9D42007F00DFB002840F0038106A8291D082215F051FB00289BD02888CD
:200DE8006F88ADF81400BBF1000FADF816702AD0287B98F80A708DF82400381C08BF0020CA
:200E08000FD00899024600208B88994509D0BDF828609E4205D0521E01F1080100F10100C9
:200E2800F2D1874207DC0B981EF080FD0898002800F0D880D4E008992A69C000BDF8287008
:200E48000A5040188780D42004A905F011FCBBF1000F0AD0A87F9DF80610884205D08DF8A3
:200E680006006946D12005F003FCB8F80600A0427FF43EAFB8F80400DFF878A1002499E097
:200E880006AB184615F09AFF50B9291D1846082215F0F4FA002808BFB8F8040000F0888038
:200EA8006F882888ADF816702E7BADF8140098F80A708DF824603B1C08BF00200FD0089925
:200EC8001A4600208B88994509D0BDF828609E4205D0521E01F1080100F10100F2D18742E5
:200EE80006DC0B981EF022FD089800285ED05BE0089A2E1DBBF1000F0CBF00212969C00021
:200F080011501218BDF8280031469080082206A815F040FE9AF8800330B1DAF8D0231AB139
:200F2800BDF8101030469047002603E0AC1D0020761CB6B2B8F80600B04221DDBDF8280018
:200F4800ADF802606946ADF80000D12007F04AFAE82803D0BDF804008145E9D1BDF8100021
:200F68000023ADF80400AF7F8DF8073004A98DF80670D42005F07CFBD120694605F078FBA3
:200F8800B8F80400B04213DDA04208D00B981EF0CDFC089808B114F073F9002023E00B98F0
:200FA8001EF0C4FC089808B114F06AF91A201AE0641CA4B2A042E7DDADF81040D42004A955
:200FC80007F010FA00283FF45BAF0B981EF0AEFC089838B104E00B981EF0A8FC089808B12D
:180FE80014F04EF919200DB0BDE8F08FB41D0020B71D0020080200207D
:201000003C000000000000000000000034100000000000000000000001000000000000004F
:1C10200000000000000000000000000001000000000000000800000000000000AB
:20103C003400000000000000000000006810000000000000000000000100000000000000E7
:14105C00010000000000000000000000080000000000000077
:2010700030000000000000000000000098100000040000000000000001000000FFFFFFFF87
:10109000FF00000001000000080000000000000048
:2010A0002C0000000000000000000000C4100000040000000000000001000000FFFFFFFF2F
:0C10C000FFFFFFFF080000000000000020
:2010CC0038140000E410000095A1011091A70110A1C2011009B2011041B80110A5BC011078
:0810EC0085BC01102D0000007D
:2010F400280000000000000000000000141100000000000000000000FFFFFFFF0000000093
:081114000800000000000000CB
:20111C00341400003011000065C2011069C101101BC2011091BA011005BC0110E5BB0110EA
:04113C00300000007F
:20114000341400005411000071C20110A5B6011099BF011045B60110B5BA011025BC01104B
:04116000310000005A
:201164002400000000000000000000008011000000000000000000000000000008000000AE
:041184000000000067
:20118800240000000000000000000000A41100000000000000000000000000000800000066
:0411A8000000000043
:2011AC00240000000000000000000000C8110000000000000100000000000000080000001D
:0411CC00000000001F
:2011D000000000000C240020040000000000000000000000200000007010000030000000DB
:2011F0001C110000142400200400000000000000000000000C0000003013000018000000EF
:20121000401100001C24002004000000000000000000000024000000481300001800000072
:20123000000000002424002004000000000000000000000010000000A01000002C00000046
:20125000CC100000342400200400000000000000000000002000000064110000240000006D
:20127000FFFFFFFF3C240020040000000000000000000000280000008811000024000000F9
:20129000FFFFFFFF44240020040000000000000000000000580000003C10000034000000DE
:2012B000FFFFFFFF4C240020040000000000000000000000100000006013000018000000F3
:2012D000FFFFFFFF542400200400000000000000000000001C000000AC1100002400000069
:2012F000FFFFFFFF5C24002004000000000000000000000038000000F410000028000000DA
:20131000FFFFFFFF6424002004000000000000000000000054000000001000003C00000075
:1813300018000000000000000000000040130000080000000000000032
:1813480018000000000000000000000058130000080000000000000002
:18136000180000000000000000000000701300000800000000000000D2
:0813780002000000F80B000068
:0413800013F014B999
:041384000100000064
:0413880000000E0053
:04138C0000000F004E
:041390003200000027
:041394000100000054
:04139800902300207E
:04139C00000200004B
:0413A0004976010089
:0413A400FDC901106E
:0413A8000000000041
:0413AC00000000003D
:0413B0000800000031
:0413B4000000220013
:0413B800A42100204C
:0413BC00000000002D
:0413C0000000000029
:0413C400080000001D
:0413C8000000000021
:0413CC00000000001D
:0413D0000000000019
:0413D400080000000D
:0413D8000000000011
:0413DC00000000000D
:0413E0000100000008
:0413E400A42200201F
:0413E80006000000FB
:0413EC0001000000FC
:0413F0008020002039
:0413F40000000000F5
:0413F80000000000F1
:0413FC0000020000EB
:0414000000000000E8
:0214040070472F
:021406002800BC
:021408000100E1
:02140A002400BC
:02140C003000AE
:02140E003100AB
:021410002D00AD
:021412000100D7
:0114140001D6
:0814180003000000C40B0000FA
:081420000000000000000000C4
:0414280000000100BF
:04142C0000000300B9
:0414300083C4011060
:041434003C14000064
:041438003C14000060
:04143C0000000000AC
:041440009000000018
:041444009000000014
:0414480000000000A0
:04144C00E823002071
:04145000F171010035
:041454002000000074
:04145800500B000035
:04145C005C0A000026
:0414600009C30110AB
:04146400E71B010081
:04146800571C01000C
:04146C0095C801100E
:0414700097C8011008
:041474000000000074
:041478004309000024
:04147C00140900004F
:041480002C09000033
:04148400FC08000060
:0214880008005A
:02148A00090057
:02148C0001005D
:02148E0000005C
:01149000015A
:041494000000000054
:041498000000000050
:04149C00000000004C
:0414A0000000000048
:0414A4004377010089
:0414A800DD50010012
:0414AC00F1620100E8
:0414B000F9540100EA
:0414B400835101005F
:0414B800AD4801003A
:0414BC000103010027
:0414C0005174010062
:0414C4000D310100E5
:0414C8000DC801103A
:0414CC001DC8011026
:0414D0000800000010
:0414D40024000000F0
:0414D80018000000F8
:0414DC0028000000E4
:0414E00020000000E8
:0414E4003C000000C8
:0414E8000C000000F4
:0414EC0034000000C8
:2014F0009505002165040021A5040021A9040021D10400217906002129070021510700219F
:201510003F0500214F0500210505002193070021B507002181050021F8B51047F8B50E4672
:2015300000210125AD0430470D480378D80702D047488121416000F00FF89B070BD0134C06
:201550002078FF2807D0FF2121700F490F24240220436031C882F8BDF8B502480047000052
:201570006B020021E54C0000094801E00848000C064C05492278FF2A01D1CA7A2270603172
:20159000C8827046801C00470062084020080021070F080800F092F805990A0A6C2A09D1A3
:2015B000082078612069401C38600A312061059100207861F8BD0000F0B4084710B501489C
:2015D000004700008909000000F018F8E1B250290BD0042801D0062807D10F490978C9078F
:2015F00003D12178090700D402200C490A780C21114202D00A4980220A60FEBDFEB5094920
:2016100008474022054B1978914319707246921C10476022F6E70000C8000021170100218D
:2016300000E200E0F1CC0000FFB5054685B0034C2047FFB585B0DE01014C2047F73F00007F
:20165000CB41000002488121024A41601047000000500440674C000070B503461546012904
:2016700006D0002906D0114A2846FFF755FF70BD0F4800E00F480524834203D84008641E24
:20169000002CF9DCE340012040031818820B012907D00649002380312846FFF73FFFE0B29D
:2016B00070BD0249044B6C31F6E70000835C0000A0BC862300830D23F0070021F8B51A4E15
:2016D0000546716B1948CC09E401002D11D01849097802290FD0007B044372B60120154F4F
:2016F0004002B847114820380088C109C90704D016E0C07AF0E7407BEEE70F497463CC61FF
:20171000400AC0070CD001208003316B002D01D0014300E081430846316307494039486350
:201730000020B84762B6F8BD80020021880000219B0200217B3F00004040044010B5224AF4
:201750000021516121498968C90009D42149204BCA0598424B6B01D8134300E093434B63DE
:201770001D49FFF729FF10BD38B51A4D287F002827D11A480088C009C00722D1124C606959
:2017900000281ED1684600F08FF868460078012817D168464078102813D208206061686A88
:2017B0004009400120600E4A0021D1620D4A022111600121084320600321084368622060D2
:2017D00038BD0948804738BD00400440180000210000930880020021CF680000680000213C
:2017F0000011044080E200E0C33B00000749002800D00420064A72B60978C90701D01058D6
:2018100000E0802062B640B2704700006B0200215860044010B5034CFFF7D0FE2068002865
:20183000FAD110BD0011044010B541200E49C00088470E490246886B496B90244B01C10494
:20185000C90E0B430A496343497D5943094B9B68FFF7EFFE10BD10B5FFF7E6FE040001D17C
:20187000FFF7E2FF204610BD7D3C000080500440800200210040044010B501880A05930F5B
:20189000084A03D18905890D112901D0904710BD90470446012803D172B6FFF7C5FF62B627
:2018B000204610BD4526000003B40148019001BDA56F000000000000010003000A001F00EA
:2018D0005900EB003902EA04F9099712EB1FA132784A0A66FA828C9E63B617C964D6EDDE2D
:2018F000C1E3E0E5FF000000A36100007F1407134D00F1242E1F133FB00A3F0007FF0000BF
:20191000304000400140034007400F404F40CF40CF41CF43CF47CF4FCF3FCF2FCF1FCF0F21
:20193000000000000F00080000003F00000040003F000000040068000E00DC000600430023
:201950001A00050000000000020000003F00000000000400C00000000400C0000000070088
:2019700050C00091007070C00091007082312100319110B10070018101B100A18231329103
:2019900010B101911110418141224F40F106007051C0019130181039833108D01831416FEF
:2019B0003100319110B1831414165B680070251050C00091F4C3C0C02014036F3110410436
:2019D00022C082312100319110B163393110410482C082312100319110B163393110A2C0C4
:2019F00082312100319110B1501015310514059200703F6452C0311031066131C102426492
:201A100012C13110213971065131E102426400708A65996588C0208250398039001E9F4040
:201A300041C001301814181A89C0308260398039001EA94041C001301914191A3C643691B9
:201A500010B1349110B154B0007154A064B0F0800022AF404012B09032B0538253395339D0
:201A700085643F6411C122C1426470C1C26811C1C2C0426470C1C76850C000912772989256
:201A90001516141642105310F0C12182313131398139313151B070B272652772999270B210
:201AB00062107310F0C331822131213981391B107265E2C08231608280318039020061B09F
:201AD0000071329110B151A061B0277230C2F36800008012B09032B0007050C000912772BB
:201AF000999262107310F0C3318221312139813951B070B27E652772989270B2421053104A
:201B1000F0C1218231313139813931311A107E6551A061B02772B0C018693F6401C122C198
:201B3000426401C1C2C04264151A3C64359110B153828564C012B09032B000703F6472C2B6
:201B500081C0426422C111C1426402C011C1426462C031C3426462C311C1426402C311C109
:201B70004264538253398564E2C347641122404142C281C8426452C211C1426472C2E1CEFF
:201B9000426402C281C8426402C201C84264B0C0546900703F6442C201C8426452C211C011
:201BB000426472C2E1C0426402C001C1426462C001C3426422C101C1426462C301C1426466
:201BD00002C301C1426453828564007061B000711214231C7A4D339110B10070329110B173
:201BF0007269007061B000711318321C8649329110B10070339110B17E690070C2C04764C3
:201C10001510C2C01216476441311514C0C0803105145410A07804040070E6C0863101CC37
:201C3000161467106182F0C3010417140070067305720B720E7250B00071818060B050A05E
:201C500092804122C3458080F1C11004301601110114016CD661D761D861D961DA61DB61FE
:201C7000DC61DE61E061E261E461366339639180F2C0210421318280422A121432160111B2
:201C90002114016CEE610B62F4613963EE610B62F4613963E661E661E661E661E661E6618E
:201CB0009464E661F964E6612A65E6615665E6614667E6611012B0900E7206730572101271
:201CD0003090A761F0CF3C67D4C103C0C0C354644078509150781092607820927078309200
:201CF00080784092907860923078909110824039F00601101031101400924267E661BCA0F2
:201D1000E2A054A0F08050221546408000222B470D6240A02D828D318D391082F1C01004D3
:201D300009101A824A391A041082803910040E10AB10BC10C21063642972E0CF3C6713B0F0
:201D500003B0C86653B050B054B064B013B0A5661082E0223846AE660071418001222B47BC
:201D7000F08010224B46F022184764B03122384263B0CE661082E02238467066386264B0F1
:201D90006F818F318F3DD0DFFF923C670071418001222B4764B0F0805022654263B01182CA
:201DB000C1226046CE6605671182D122524670665262618172818131813D8231823DC0EFDC
:201DD000F19202933C670B62B081C091D381978290A2D3187F4EF30B1316E31CA44AC3918A
:201DF000E3813B149062BA1C8B46231E8B4AE31C8B4E90B207228B4290A21B1A9662E31C03
:201E1000A44AC391E3813B18AB1CA04E9B1CA24ABC1CA442B2101082D0229D42F0801022DC
:201E3000A4466364A566A462AB1094629B10946200703082F1C0100463B00071A86ABC1035
:201E5000E0B00070B281C291D281018212185181121841828131813D121CBF4AE2B032B012
:201E7000B0DFF2923C67F1C72114C34E12C86291729131B0E1B0007008C006C000C86091A5
:201E9000709100700182B081C091D0811018518110180614E18042828231823D201CE44A2E
:201EB000E2B02122E84632B00510A0DFF5923C672122E842E2A032B031824139F0C00104BC
:201ED000011EF642181610C01030081C04476010103C0610F1C76114FA4E16C866917181E0
:201EF0008131813D161C014B769131B006C008C0007061818131813D408280390118F11C0B
:201F1000174B0114B080C0221747BCB033B090EFF1920F933C67007003A063B064B0EFB05B
:201F300056650071408000222B4764B02A65EFA00071408000222B4764B003B03862018236
:201F500062818231823D80EFF19202933C6703A05665E661A2806364E66150B00071E66165
:201F7000E092D08200223D47C0B20070A080F022594330B002C1623101C0A080001E52436D
:201F9000F0225343A0F56031603953632010101A136F236E11161216546B00707D7E00002E
:201FB0005DB70000000000000000000000000000FD6B0100E56F01003D150100A96F0100D3
:201FD000617601005B760100F96F010000000000D3750100091E0100112A01003D6801008B
:201FF0008D95000097710100D9DC000085610000A55701006D3B0100000000001932010019
:202010000B7401007DCC0000F6C0080000004100000001C3100000024210000003C41400E5
:202030000004C518000005C618000006C71C000007C920000008CB24000009CD2C00000AF0
:20205000D33800000BDA5000000C18B800000D3FA600000E3FA700007FFFFF3F00F6C004F8
:20207000000000C312000001C416000002C518000003C61C0000044418000005C82000008F
:2020900006C924000007CB2A000008CE32000009D24000000AD85800000BE59000000C2B2D
:2020B000BC00000E3FAB00007FFFFF3F00050000B95101001D6F010031000100C375010098
:2020D000D776010025FC0000055E0100137601001F76010019760100182000006D200000A8
:0420F0006D2000005F
:2020F4002DE9F04FADF1240D12F02AFF15F0F1FA804608200CF0B2FA0FF050FA10B1A3A0AA
:2021140015F0EAFBAE4C6068406880476068C16804A888476068836804AA0020014698477D
:20213400A06010B9A1A015F0D7FB14F0F1FCA64FC4F8E070A54DC4F8E4500026A4F85C6058
:20215400A048C4F8DC00A24BC4F8E830A14AC4F8EC20A149C4F8F01004F5C877C4F86C7100
:2021740004F1C805C4F8705104F1DC00C4F8740113F050FD04F51E70994BC4F87801994A37
:20219400C4F8103104F1A0072262944DC4F87C719549C4F8B85005F16E006162944BC4F820
:2021B400BC00944A6367914DA26793492567B4F85C70E16747F00100A4F85C00914BC4F8D0
:2021D4003832914AA2618D4FC4F818728C4DC4F8285204F17000C4F88C0113F005FD8D4BE7
:2021F400C4F88C33894FC4F884738C49C4F89413894AC4F890238B4BC4F89C33884FC4F857
:2022140098738A49C4F8A413874AC4F8A023804DC4F88853874BC4F8AC33854FC4F8A8738D
:202234008649C4F8B413844AC4F8B023B4F85C0084F8806340F01000A4F85C00804BC4F8B5
:20225400BC33D34FC4F8B873D349C4F8C413D14AC4F8C0237B4D2E706E70D14B2E61CF4FFC
:20227400C4F8CC33D049C4F8C873CE4AC4F8D413DFF85493C4F8D023CD4BCC4FC4F8DC3359
:20229400CD49C4F8D873CB4AC4F8E413CC4BCB4FC4F8E02309F10E01CA4A1E700888C4F85E
:2022B400E8730E30167080B214F042F907466F6117B915F0D7F96F6900978DF804609DF8CB
:2022D4000500D14966F301008DF805009DF805004B4666F383008DF80500D8899DF805203B
:2022F400088066F307128DF80520ADF8060068696946082214F048FC2F626E6212F082F8AC
:20231400D04D2878012802D0304603F033F8CE48CE4F0670AB463E709BF80000012802D087
:20233400304603F027F840461DF0FAFA01F0F6FF14F01EF994F82F0411F0A4FE012003F003
:2023540019F80CF0FAFCD24806709BF80000012802D0304603F00EF80DF076FBCD4FCE4A37
:202374000721334607F1140013F092FDCB4DB84604F164074FF48042C949069728784A8076
:202394008946087004F158020792F3E052616E646F6D5F736565644175746F6D617469631F
:2023B4002829206661696C656400C04643727970746F206F70656E206661696C656400C095
:2023D4000802002021820000F12B01003D67010029A20000F1D40000991601000405000011
:2023F400F9C70000B1750100B57201006DB8000039AC000051400100295401001936010050
:202414004D140100857601007998000089F500000D640000050F0100ED510100A17C0000D9
:2024340025DF00000D5C00004D300000C505010055800000E5C80000316F01000597000014
:20245400F96001002C2D0020E868410907D32E208DF8140005A80FF07FFFAD48006841086A
:2024740007D325208DF8140005A80FF075FFA8480068810807D326208DF8140005A80FF02A
:202494006BFFA3480068C10807D327208DF8140005A80FF061FF9E480068010907D3292061
:2024B4008DF8140005A80FF057FF99480068C10909D38DF815602D208DF8140005A80FF0F2
:2024D4004BFF93480068010A09D38DF8156030208DF8140005A80FF03FFF8D480068410A1F
:2024F40009D38DF8156035208DF8140005A80FF033FF87480068C10A09D38DF8156023200B
:202514008DF8140005A80FF027FF81480068810A09D38DF8156036208DF8140005A80FF00F
:202534001BFF7B480068C00B0FD3D9F8087067B1D7F80CA0384615F0CBF9384612F09AFE5A
:202554005FEA0A07F4D1C9F80860676D6FB115F0C0F8616D666503911DF0E2F90398A065B9
:202574000FF0FAFE079812F05BFD3046E86015F0ABF9287865490B783BB1664F183F17F818
:20259400181F884222D05B1EF9D1304625E0C046E93E01000DC7000079A30000916D00005A
:2025B4005B67010049E400000938010085FF0100B5410100E56301000D6B010037760100E9
:2025D400FD2D0020FF2D0020AC1D0020F8684FF0FF3115F075F978690088E86015F06CF90B
:2025F4002878A9890FF0E8FD15F073F898F8011088F801608A0809D2C90812D31DF090F966
:20261400304602F0B7FE0EE0C81C00201DF088F99BF80000012802D0012002F0ABFE15F0BA
:2026340058F81DF07DF9E868800905D3069813F0CFF90028039035D1E868000CFFF404AFD6
:2026540014E0C046D9230020012E0020F92D0020D02909D18178E970C17869700179A970F1
:2026740087686F61C168A96114F082FD287810F001FC002803903FF4E7AE0178D029E7DA7E
:20269400A0650FF069FE079812F0CAFCEEE7C046FE2D00200423002033770100780700209D
:2026B400DC23002015F015F894F86C10491E84F86C101DF035F9039801788DF81410A06571
:2026D4004778CFB1DC2F0DD0DD2F0BD0E42F09D0F32F07D0DE2F05D0DF2F03D0E82F18BF42
:2026F400DB2F0BD10AF010FC9DF81400162805D103A812F095FC01E00FF02EFE9DF814002A
:20271400162893D0079812F08BFC8FE75417002084070020741700202DE9FE4FDD49814635
:202734000122A1F130000260D8480768002FFCD0D74AE34EC027D848D84B1760326892088D
:2027540008D2324652F8042C03F14104120C42F0F00222704FF0000A8346C1F800A0DFF84A
:202774008CC3DBF80810E04F0191880E43D2480E41D3802018744FF6D802A3F85120187056
:202794003868C0F30464162CA8BF203C1E460F3E307800F01F001628A8BF2038844223D047
:2027B400624602F1980EE44ACEF800A0251A022D05DC15F1020FB8BF6FF0010500E00225E7
:2027D4004019156800F01F05844245F4F855A6F866504FF001051560E8D110682E46166086
:2027F4001068CEF80050106838460068C0F30420162808DB06E0A7F1D0000068C0F3046014
:20281400162800DB203800EB2170401C162805DA10F10A0FB8BF6FF0090000E01520D54E0D
:2028340000F01F0040F4F850A3F85900306880083ABFD148C0F800A041F040616246C80E2B
:202854008E0E80F0010000F00100106086F0010000F00100906001980FF07EFE014618200B
:2028740012F0D4FCA7F13806CD4C30683568A4F10408C0F3870105F0030041EA0021D8F85E
:202894000400C04D446840F2FF32534688B22C21009028464038A047F06AC0F30D011C2030
:2028B40012F0B4FCB549706A014000F07C400143142012F0ABFC316A01F47C000904090C3E
:2028D4000143102012F0A2FC7D4AB06A1268C0F30351C0F30344520813D2DBF8002013052A
:2028F40011EB237103D41029A8BF0F2100E05146120414EB227403D4102CA8BF0F2400E0DE
:20291400544644EA011400F47F4200F0FF01B9F1220F42EA044241EA020124BF00F0804013
:2029340001430C2012F072FC954CB9F1220F32BF01202068C0F30070B9F1220F4FEA4000D6
:2029540040F0200085F8090126BF2068C0F3407001208D4EB9F1200F40F0100085F8090120
:2029740038BF514606D33168C80C00F44070C1F384510143282012F049FCB9F1200F26BFB1
:202994003068C0F301505046B9F1220F4FEA400040F0600085F80C0126BF2068C0F3C06043
:2029B4005046B9F1220F4FEAC00040F0800085F8010126BF2068C0F345505046B9F1200F46
:2029D4004FEA800040F47C40A5F89C0138BF6F490AD3306801038A15920501F47C1100F030
:2029F4000F00114341EA0031082012F00FFCCC3F4FF480002860664AB86D40F21E216FF3D1
:202A14001F40814216D93868030E03F00F0113F00F0FC0F3034018BF491E072805D0062856
:202A34000EBF0720801C00F00F0041EA0011A2F108000170DDF804C0CCF381477F1E02D01C
:202A54007F1E31D02CE02068810C29D24FF480412960D2F80210430AC0F3033703F080038F
:202A740021F08F010B4347EA0301C2F80210D2F80130060A66F30303C2F80130116800F094
:202A9400E70721F0E70147EA01000CE09402224300600C4040100940AC3F005015620840E3
:202AB4004FF000402A46106005480068C0F3C0070FB94020A8624FF40070286402E0C0461B
:202AD400B03F005020684027C0F3C14040F0300085F8C800CCF3815080B3401E08D0FFE77C
:202AF400401E23D0022122E08813005000002043012012F0C9FF0646042031460FF01EFF10
:202B1400042012F0C1FF8642FAD12248066826F07F4012F0DDFDD8F81400036807214FF0E9
:202B34006022300E98474FF480602860032104200FF004FF09E0C0462C2009400420012123
:202B54000FF0FCFE144812F0C3FD203C206800F03F0085F8CB0FD8F80030124ED9683068A7
:202B74000220884710480D4C076001212160BDE8FE8FC0460000094094042A43FCFCFC001B
:202B94008C13005040A00C409813005000803F400A600840A83F0050BD378600940460426F
:202BB400A40100102C20094000600C402DE9F04FDFF860B30F460446F80BADF1140D80F0FB
:202BD400F181DFF84C83B80F80F0A681B80880F09381DFF83883F80A80F0F580380B80F0FB
:202BF400CD80380907D2F80FC0F00E8227F080470FF016FD08E214F06CFD814613F0BAFA4E
:202C1400002800F0B580082014F050FC002840F0AF80802014F04AFC002840F0A98004A83D
:202C34000CF0F6FC012803D10498002800F0A0805846C9300078002840F09A8000240125F6
:202C5400E0B214F0D9F948B1867A3EB1857290F9090005FA00F0C0B212F0E6F8641C032C97
:202C7400EED344460320207504F1B40014F027FD48461CF055FEC948002632460168066001
:202C940050F8081CC64940F8086C04F1380014F026FD304613F0DCFB14F068F9A168401A8D
:202CB400010BE069C1F1FF3282422CBF08444FF0FF30E06194F8200020B12069E169B1EB32
:202CD400C02F25D913F024FC314600B12946081C1BD0D14840F6090101804680417B05F0D9
:202CF4000F0221F00F010A434273017B06F00F0321F00F0143EA010202733146416014F026
:202D1400A7FA418811F4406FFBD084F82050E66111F07CFEC14831460660022013F018FAEB
:202D3400022012F0C1FA11200BF052F9207818B96068483014F0DBFCB948007810B90E2035
:202D54000BF046F994F8210020B184F82160052012F0AAFAB348A0612675B4F98C00B4F962
:202D74008E10884214BF022007200DF0B9FD02E048461CF0D5FD27F0080739E74446201DAD
:202D9400056812F035F838B12846ED696FF4807100224FF00073A847E06848B114F0E6F89C
:202DB400E2686168801AC860000BC8600026E6609D4904F13800002214F091FC27F4006743
:202DD4000220207514E714F084FC064613F0D2F94446216F0028884600F08880002900F06E
:202DF40085809249042504F138000022257514F076FC30461CF094FD04F1B40014F05FFC3C
:202E140014F0B4F8E060D8F810006060D8F81000416AC90803D3036A2946002298470120DE
:202E340010F048FB824814F013FA65684FF0010985F8159060680EF0A7FFD5F808A040F611
:202E54000A02D01F564600F1010C00E01E46736833B119888A4203D0884218BF8C45F5D14E
:202E740000217160727B09F00F0322F00F0213437373D8F80C201288904225D06046904220
:202E940022D02C8E0CB3696305F13002518095F83C0001F00F0320F00F00034385F83C30D4
:202EB40095F83D0009F00F0420F00F0044EA000385F83D307260707B01F00F0420F00F000E
:202ED40044EA0001717300E0E160504669460AF05DF9684614F0ACF914F070F8504614F0B8
:202EF400B7F95146484613F033F902E030461CF017FD27F4806787E008F0FAF940467030C8
:202F1400006808B927F002077EE0C04688240020902400209025002014F0DBFB81460420B6
:202F340012F0B2FDC0B1207DB0B14046006898B12569064614F01AF8801B2061000B20618E
:202F5400A84202D240194008206140F6C41181422CBFB0F5967F216148461CF0E1FC11F010
:202F740047FF88B1E56920466FF4807100224FF00073A847404668300068002808BF47F047
:202F9400020701D00FF04CFB2046A46900214FF080630A46A04727F0005735E01410044025
:202FB400412F010014F095FB22490E6846B306F1280106C90A234FF0E0450B40154008BF37
:202FD400002B1DD106F1280191E8300006F1280393E8060006F12803AA43A14383E80600F4
:202FF4001CF09EFCB16869B1002D08BF002C09D030692246B6F93C10B4682B46A04701E09A
:203014001CF08EFC27F480471FB15846394614F076FB05B0BDE8F08F9C2D0020000004609C
:20303400AE0B0000CDC900008DE800000565010001010E04102500202DE9F04FADF1840D60
:203054001A9104461B920DF15F00CA491C93082213F09AFD2046694612F06EF85FEA000B06
:2030740003D1002001461F90FAE102200027A41C1D90D44E1F97204602A910F040FB5FEA54
:20309400000800F0E9811F990DF1410016220EF0E5F89DF809707F1E00F087807F1E40F041
:2030B400D381B8F10A0F40F3DA81A41C06A80422214613F069FD241D07A80222214613F076
:2030D40063FD42F20B000DF11E0110F003FFBDF81E00BDF81C10884200F3C181A41C14F89F
:2030F400010B14F8017B14F8015B8DF8410014F8011B8DF842700DF141028DF843502046DC
:2031140005F01EFBCF4909780028044400F0A78101290BF1020700F08D814FF400500DF1AE
:20313400570110F0D7FE0DF157000DF15F01082213F09EF840B11A990DF15700082213F0B2
:2031540097F8002840F0768142F2010006A906F0CFFA42F20B0007A906F0CAFA42F20500F8
:203174000DF1410106F0C4FA0DF1420142F2060006F0BEFA0DF1430142F2070006F0B8FAF9
:2031940011A942F2090006F0B3FA9DF8440028B1022840F04F8142F2030001E042F20D004C
:2031B4000DF1450106F0A4FA44E1B8F1040F40F35681A41C14F8010B14F8017B14F8015B70
:2031D4008DF8410014F8011B8DF842700DF141028DF84350204605F0B3FA0028044400F0F5
:2031F4003E811A9808A905F02BFD9DF83E00002840F002819DF84400002878D1B6F84E7018
:20321400002F00F0F780B6F85200874207D0308B718B884201D108F02BFEB06D20E0B76DAF
:203234004FF4005004A910F055FE14F041FB4FF6FF791F9D1E90AA46B6F84E00A84240DC8E
:20325400B06D4FF6FF7149450AD04FEA490707EB89073818808810F0F5FDB06D3F1820D166
:20327400B6F84E300746002B08BF1F9D16D01F9D1846BF1FBF1DFA782AB1401E05F10105B2
:20329400F8D1BF1D0AE014F024FAB6F85210491CA6F852101CF044FBB6F84E30AB4200F0A0
:2032B4008E801A9809F008FFB8800120F870FD788DF83E50B888ADF83F001F9B8DF82B3033
:2032D4009AE0B88810F0E2FD0146082204A812F0CFFF40B1388801041E9814F0F6F982452E
:2032F4003CBF8246A9466D1CBF1DADB2A4E7B6F84C70002F7ED0B6F85000874207D0308B79
:20331400718B884201D108F0B3FD706D1FE0776D4FF4005004A910F0DDFD14F0C9FA4FF673
:20333400FF791F9D1E90AA46B6F84C00A8424BDC706D4FF6FF71494509D009EB49173818FF
:20335400B0F81F0010F07EFD706D3F1821D1B6F84C300746002B08BF1F9D18D01F9D1846CA
:20337400213F2137BA7F3AB1401E05F10105F8D121370CE06C01000014F0ABF9B6F85010D3
:20339400491CA6F850101CF0CBFAB6F84C30AB4215D01F99384621220DF060FF1A9809F069
:2033B4008BFEA7F81F000123FF2039462122BB770546787208A8FD7213F0E6FB1CE06120C6
:2033D4005BE0C046CC140020B7F81F0010F05EFD0146082204A812F04BFF38B179681E9886
:2033F40014F073F982453CBF8246A9466D1C2137ADB299E7642040E09DF83E000DF1410159
:20341400162240F004008DF83E000AA813F0BCFB9DF844000BF1020748B19DF856500DF1ED
:20343400450029460FF096FE2D1A8DF83D5008A80EF008FC1D9808EB0005AD1CA8B21D90A9
:2034540006E0C0460A02002044440BF10207A41C1D9887423FF70FAE1D98022803DC1F990C
:203474000A46672005E0ABEB00021F980BF10201921C1B9B19801C990A8021B0BDE8F08FFD
:203494002DE9F04F5648554C007800212422ADF13C0D08232070684614F006FA4FF0010A07
:2034B40004F11805002128466A468DF818A014F0F7F9656014F0F0F9294604F108020EF058
:2034D400AFFE6070102012F071FF011C0ED0D0200027087022464F7052788A70CF700F7185
:2034F40026468F603078CF6010F010FB14F0F1F8DFF800830D90002488F8034012F08AFB29
:203514004022214608F53B700DF0A8FEBA4D05F1080001882C2707FB01F00CF077FFC8F87D
:20353400100308B914F09EF8E87A29894143480000EBC1000CF06AFFC8F8140308B914F07C
:2035540091F8E9882889484380000CF05FFFC8F8180308B914F086F8288980000CF056FFA7
:20357400C8F81C0308B914F07DF8288980B12246D8F8101389180C75D8F8101389180C71AE
:20359400D8F81013401E114402F12C028C81EFD1A988880000EB01100CF038FFC8F82003B8
:2035B40008B914F05FF8A1464FF6FF7BCDF8309040E0304612F00CFA0B900BA811F030FD96
:2035D400C6E0304612F004FA0A900AA811F028FDB9E009A811F024FDA3E0C046DC21002037
:2035F4003C0C0020AB7AD8F820734846860006EB0016D8000CF00AFFF119F319C860DF684A
:203614000FB914F02FF8AF7A87B12046D8F820138919CB68C200A44642F803C0C9687F1E8D
:2036340000F101001144A1F804B0EFD109F101001FFA80F9AF884F45D4DC8248FF21082206
:20365400C01D0DF00BFE7F48FF21082288F8FB1210300DF003FE4FF0030C2E8988F80CC343
:20367400A8F80EB3BEB104232046D8F81C13820002F801A0D8F81C1389184B70D8F81C1363
:20369400891881F802C0D8F81C13761E00F101001144CB70E9D16B480422052102263430E0
:2036B40000F804AF42708170761E80F803A0F7D1644880F83CC098F880634FB12046D8F868
:2036D40020137F1E014400F11400A1F802B0F6D1022088F8F0021EB1D8F8840300B1804778
:2036F40013F020FF98F92E0413F066FD12F0A8FA13F0BEFC13F0FCFA13F0EEFA3F4E07256D
:2037140056F8040B00B180476D1EF9D113F038FB454605F15400016809B111F081FC85F842
:203734005E4028780FF0A6FB002809907FF451AF33480078012802D0204601F01BFE31488C
:2037540005F160060470286E00287FF43AAF361D686E00287FF42DAF2C662B48C5F8900178
:203774006C662A4FC5F8947185F86A40284EC5F8986185F86B40274BC5F89C31AC70264A25
:20379400C5F8A02185F86C402449C5F8A4112849C5F8C810224FC5F8A871264FC5F8CC70D4
:2037B400204EC5F8AC61244EC5F8D0601E4BC5F8B031224BC5F8D4301C4AC5F8B421204AC7
:2037D4000D98C5F8D8201CF0ABF805F21541522006F06CFA95F82F0410F056FA13F0A2FEFE
:2037F4001949E220103113F05AFF174840680FB0BDE8F08F08020020AC1D0020180300207C
:20381400D9230020FC2D002023FC00007F760100455F0100AD8A00001DCF00006565010087
:20383400F553010089AE0000219E00006D5F010047E4000009A60000E11E0100C5F90000D0
:20385400C5270100F4040020DC2100202DE9F04F1E4617460D468246ADF1540D14F028F8DE
:203874005C4C3C2204F110010860002102A80DF0F5FC296802A801606968416029890181C5
:20389400287A032804D0022003258DF8140002E003258DF81450207818B104F1340013F010
:2038B40082FEA08E6178ADF812001F29B4BF481C0020BAF1050F607041F080014FF00000F7
:2038D40011900BD0BAF1040F05D0BAF1020F08BF41F0600104E041F0200101E041F0400127
:2038F4008DF81510ADF8307001200B96BE498DF816000A680DAB1A60496859608DF83D5041
:20391400BAF1050F8DF83E504FF005078DF83C7012D0B4F85E00BAF1040F08D0BAF1020F07
:203934000FD1B4F86400401CA4F8640009E0401C80B2A4F85E0004E0B4F85800401CA4F8D6
:2039540058009DF81C00012807D19DF91F0010F075F9B0F1FF3F00F03881A4489DF8177096
:203974000178A3481FB990F86B208A4207DB012F40F02B8190F86A208A4280F2268180466D
:20399400BDF830009DF83D6012909DF83C70DDF84490BDF824500A9813965FEA000B1BD0BD
:2039B40098F88013002900F01081D8F89813002900F00B8100F0FF008847D8F8981306B215
:2039D4000BF47F008847361830B2001D00B2C83086B202E0E01C0020C8260DB12D1DADB204
:2039F40098F82404012809D147B1824813993F1897F80490405C8019401D86B21298401943
:203A140080194844801C80B212F0D0FC071C00F0DC8012987319002D4844DDF84490388111
:203A340003EB070078600EBF4846B819801C78224946C7F8A40007F10C000DF00FFC12989B
:203A5400FF21102280194019A7F84C0007F13C000DF004FC07F12C000F2110220DF0FEFB76
:203A740087F8009087F801907868BDF830200B9913F08AF807F184000DA90B2213F084F827
:203A940007F1900002A913F002F8BDF81200A7F89A009DF8140087F89C009DF815000DF176
:203AB400160687F89D00326869460A60706848609DF800104846012908BF01209DF801109C
:203AD400012908BF40F004009DF80210012908BF40F008009DF80310012908BF40F0100004
:203AF4009DF80410012908BF40F020009DF80510012908BF40F040009DF80610012908BF21
:203B140040F080009DF80710012908BF40F48070A7F89E009DF81E0087F8A0009DF81F005D
:203B340087F8A1009DF8400087F86C00BDF82410A7F8A81029B10A46D7F8A400089913F010
:203B540023F89DF8260087F8AA000A98C7F8AC00B7F8A800C8B1D7F8A400B0B17868401E63
:203B74007860F82101707868401E786080F80090B7F8A810B7F8A8607868401A78603889C0
:203B94008019801C38817868B865B7F89E00410A13D39DF83F10052917DB00F0040100F0BF
:203BB4000100084311D108F1900420460DF014FB9DF83F10204612F0FBFC98F80000394672
:203BD4000FF0A4FF012011900AE0BAF1050F07D1E06A11F00DFEB4F85800401CA4F8580042
:203BF400119815B0BDE8F08F59070000AC1D0020080200201C0400002DE9F043C64CDFF85A
:203C14001C93DFF81C836088ADF13C0D4108C0F09180C4A013F090FA08A804A90EF01EFF29
:203C3400012878D1C2A013F087FA454624352868F0B10769E7B1062002268DF808000022FE
:203C5400ADF80A600BADADF80C2002AB009593E803000C23B84758B9BAA013F06DFABDF840
:203C74002C0060850C9FE7620D98206313F060F90225BDF81210BDF8100084F8245005AA45
:203C9400A1830FF099FB071C06D0B5A013F054FAB6A0394613F0DDFC28460EF0C5FB4D464A
:203CB400BDF820009DF81C70A5F8400009A985F8427005F1500013F062FCBDF8220005F1C8
:203CD400460605A9A5F84E00304613F058FCBDF81200B5F84010A5F84400502013F06FFB9C
:203CF400B5F84E10532013F06AFB4A20314613F0D6FC95F84210E12013F068FBB5F84410CD
:203D14004B2013F05CFB102105F10A0013F0CFF80120207008E013F0CBFDE06001200EF00C
:203D340083FB002013F0EAF9A01C012113F0A9F82046408880080DD3E06A11F059FD12F030
:203D54007FF800B2A082E08202F0C0FDA01C022113F097F84D466F89780805D305F10A009F
:203D7400012113F08EF86F89B80805D305F10A00022113F086F86F89780915D342200EA9D6
:203D940010F00AFC95F85A0005F10A06032818BF042802D1286E11F013FD11F079F930468B
:203DB400102113F06EF86F89B80907D30DF0DEFC05F10A00202113F064F86F89F80907D378
:203DD4000AF00AFE05F10A00402113F05AF86F89780A13D395F85D0013F090F995F85D0057
:203DF40005F10A06032803D15220012113F0E0FA30464FF4807113F044F86F8938094FD3F5
:203E140095F85C0005F10A0600283DD0401E35D0401E02D0401E2FD03DE095F85810472001
:203E340013F0D4FA95F85910542013F0CFFAB5F844104B2013F0C3FAB5F84010502013F0CB
:203E5400BEFA09278DF8117003238DF8123001228DF8132095F842008DF8100004A813F085
:203E7400AAFB95F85A00012815D1E87898B13046202113F01CF80EE003200AE0522001218D
:203E940013F096FA022004E05220012113F090FA01200EF003FF3046082112F0F2FF6F89A9
:203EB400454617B1A86813F0F3FCE988687849081CD3A97802094FF0000601D301290ED0BB
:203ED40040090ED301290CD02CA013F035F9A01C012112F0ECFFA86813F0DAFC01E010F00C
:203EF40081F96E70A81D012112F0CBFF608880B9254C60684FF0FF3113F0E2FC48B1607828
:203F14000EF0B8FF041C04D000F0D0FB204613F02FF90FB0BDE8F083E01C00205C1E00200B
:203F3400041B00205374617274204576656E7400466F756E64206E6574776F726B20696EE1
:203F5400666F21005765206861766520636F6E6669672073657474696E67732100C046C0C9
:203F740041757468204572726F7200C041757468204572726F723A20307800C05374617299
:203F940074696E672E2E2E00DC2100202DE9F04F064692F808B0307D09AF8846ADF1240DCF
:203FB40004933528039205D0114606F170000A2212F0EAFDDFF8C8C238F07F0506BF604644
:203FD40000884FF6FF700590F08A800934BF002008203076F08AC00834BF1020802070762D
:203FF400F08A400903D260460E30007800E00020B076F08A41082CBF20240024000928BF8D
:2040140044F010047568002108F07F08307D06916D1E02280EDB0C2808DC0C2803D10220A3
:2040340044F40854069044F0030404E00D280CBF02200120044396F88C0008B144F0080486
:20405400E110220900D328B1DFF8C09299F8243413B908B1DF204DE149086ED306F1240112
:20407400DFF8ACA296F88D50079100EB0A011AF805300A7999183389491DCAB29918A54B54
:204094001A8808908A42C0F2378100284CD0049A039906F1840009F023FC0799002808605B
:2040B4003FD0806AB0F1FF3F39D070680023401E8DB196F88E10524600F80119515D491E89
:2040D400C9B241B18A1992F88320491EC9B2002900F80129F6D1079970660968896AB162AE
:2040F400090E00F8011996F82A1000F8011996F82910089A00F8011996F8281005F003056B
:2041140000F8011902F0070141EAC501017071683589091ACAB27060A918318105E0DB27BD
:2041340000E0F3277770E8E00023F08A7370C00828BF44F0100475686D1E336DA3B9B36DC7
:2041540093B999F83D14012903D13089B0F5EE7F06DA200904D202290AD144F4005401E002
:2041740044F48054012002E044F408540220069099F8020001280CD099F8800348B196F89D
:204194006B00042805D1022024F48054069044F4005444EA8834B8F1020FA4B20AD0B8F1F1
:2041B400030F10D1ED1F09F58661284613F06FFA6D1E08E0B9F81604001205F8010999F845
:2041D400160405F80109069802280CD0B8F1000F15D0BBF1000F0CD004990598814208D1FC
:2041F40044F040040BE0BBF1000F08D1B8F1000F05D00599081205F8010905F8011944EA23
:204214008B24BBF1020FA4B209D0BBF1030F0ED10399ED1F284613F03AFA6D1E07E00399F7
:204234000888001205F80109087805F80109BBF1000F05D00498011205F8011905F80109DD
:204254003878F8B934480178307D0D2814D068B9306D28B999F80004411C89F800140AE01E
:2042740099F82504411C89F8251404E099F80E04411C89F80E14014605F8011904E0C0468A
:204294001A06002044F48074201205F801092C7070683789401BC1B2756078183081200924
:2042B40027D3B16D99F8800301B1316210B1307D0D281ED1726A12F1150002D113F0D2F952
:2042D400726A916A481C9062306A3289B162471B0092D21B019090B20290706A96F88C20DB
:2042F4002B46153009F0C6FB00281CBF7070071C07D10020707005E0E5277770F32012F06F
:20431400E0FBF8B209B0BDE8F08FC046080200201C040000BA1D0020302D00202DE9F04F0E
:20433400CD4D286A416EADF11C0D02A888474FF00009D44FCDF80890B8688DF80C9000289D
:2043540037D111F0ADF9C8B111F0AAF9012815D011F0A6F9052811D011F0A2F90C280DD014
:2043740011F09EF90D2809D011F09AF90B2805D011F096F90E2801D013F074F911F090F956
:20439400787000280CBF48460120B870286A00F1200118B913F066F9296A2031096807F133
:2043B400180088474FF4FA703885B74EFE6206243C63DFF8D882EA6998F83F444FF0010A89
:2043D4004946080100EB41108018867F2EB9437F491C9C42C9B2F4D102E0417FA14204D1D2
:2043F400824202D010F0ACFDEA69DFF8A4B2686A1BC88BE81B0097F90100012805D00D28E3
:2044140003D00E2818BF484600D105208BF8000098F86D1450699F4C50F82100C4F89C002B
:2044340012F072FA632005A910F0B6F898F83F0410F06AFD064694F88E006AF3020084F8A0
:204454008E0010F0B5FB042825D010F0B1FB032811D094F8900040F00F0084F8900094F83E
:20447400970069F3030084F89700B07B052814BF2420292016E094F8900040F00F0084F89A
:204494009000292384F8943094F8970069F3030084F8970008E094F8900040F00F0084F898
:2044B4009000212084F8940094F8950069F3871084F8950010F07CFB042818D0B37A7BB9F6
:2044D4009DF8140094F89510401E60F3050184F8951094F8960020F03F0040F0180014E069
:2044F4009DF8141094F8950061F3050005E094F8950020F03F0040F0020084F8950094F851
:20451400960020F03F0040F0200084F89600B189B07BB4F88E200A23401D484390FBF3F1FD
:2045340061F3CF02A4F88E20B08994F890201923800390FBF3F102F00F00D4F890200F23A6
:20455400484390FBF3F161F31C22C4F89020E86994F89820017F61F3020284F8982094F822
:204574009810007FC01060F3C30184F8981098F92E040FF063FBB0F1FF3F05D0010828BF31
:204594004FF6FF70A4F89A00308971683368EA69401E414303EB51004FF47A71B0FBF1F0C2
:2045B400A4F8A00090690078A4F88290C4F8849094F88D3084F8A4006AF3030384F88D30B7
:2045D40012F0AAFFC8B9B089334A98F83F64B1FBF0F0C0B21070B1FBF0F03049022E887007
:2045F40006D010F0E5FA032807D105225C2001E00222A8202A4B1A704870BB682E6A6BB3EF
:20461400484610F009F9F87898F83F14884212D13A7998F86D142E6AB8688A420DD10221AD
:204634004A468DE80600366D80344B4602AA2146B047EC601DE02E6AB8687168884719485F
:204654002B6A80F800A01E68174880345946224607F11803B04709E0701F0020803422463B
:204674001148346807F118035946A047B860686AA86298F83F0498F86D64F87007B03E71A2
:20469400BDE8F08F102200208BE8000008020020D82D0020081C0020042300206C1F002098
:2046B4002C230020DA230020582C0020B0B50446BC480768ADF1480D002F00F0AC812078BD
:2046D400401E122800F2A781DFE810F06E0157013D01280120010901F600E800C800B70097
:2046F400920067005D004C00A501340026001C0013007B6C002B00F08E810020A21C01469F
:20471400984788E1F86B002800F08581684621460BF0C2FEF96B7CE1386C002800F07B8173
:204734006846002101220CF099FD60788DF80000396C6EE1F86A002800F06D816846002159
:204754000E220CF08BFDA11C684612F089FAA57BA1890022ADF80A1005B101228DF80C20EC
:20477400F96A57E1B86B002800F055816846002102220CF073FDA5788DF8015060788DF8CA
:204794000000B96B45E1786B002800F04481684621460BF081FE796B3BE1386B08B3684660
:2047B400002114220CF05AFDA5788DF80150A3680193A289ADF80820A17B8DF80A1060781E
:2047D4008DF80000E57B8DF80B50237C8DF80C3094F911208DF80D2061690491396B68467F
:2047F40088476068002800F0168112F0C1FC12E1B86A002800F00F816846002124220CF0D2
:204814002DFD6078A11C8DF800000DF1020012F027FA04F10C0103A812F022FA257EE08A45
:2048340004F119018DF818500B22ADF816000DF119000AF0D7FFB96AEBE0786A002800F0B1
:20485400EA806846002102220CF008FDA5788DF8015060788DF80000796ADAE0386A00282F
:2048740000F0D9806846002112220CF0F7FC658862796078ADF8025023798DF80520E11D0E
:204894008DF80000A5798DF804300B220DF107008DF806500AF0A6FF396ABAE0F869002836
:2048B40000F0B9806846002101220CF0D7FC60788DF80000F969ACE0B86910B120460EF069
:2048D400CBFEA07820B9A069002800F0A48003E0A069002800F09F8010F0CCFC9BE078697E
:2048F400002800F098806846002113220CF0B6FC6D46A01C0168406829600B22686004F1CF
:204914000A0102A80AF06EFF796982E03869002800F0818020460AF065F97CE0F8680028C7
:2049340079D0684600210E220CF098FC6078A11C8DF800000DF1020012F092F9A089ADF816
:204954000C00F96865E0B868002864D06846002114220CF083FCA01C01686D46296040688C
:204974006860A07A0B2204F10B018DF808000DF109000AF037FFB9684BE0786800284AD0E1
:204994006846002110220CF069FC60786588211D8DF800000B22ADF8025001A80AF022FF31
:2049B400796836E0E82100203868A0B36846002119220CF053FCA01C01686D462960406872
:2049D4006860A07A410824BF01218DF80810810824BF01218DF80910C10824BF01218DF877
:2049F4000A10010924BF01218DF80B10C10924BF01218DF80C1030F07F001CBF01208DF84A
:204A14000D000B220DF10E0004F10B010AF0EAFE39686846884712B0B0BD70472DE9F04F00
:204A3400B44ABF4C02F12001096804F11000243201601268011D0A60AF49ADF13C0D0546EC
:204A5400082211F015FC28B9AC490A682846026049684160AA48AB49C0F8B010AB4EC0F88D
:204A7400BC600025C0F8B850A74FC0F8B470A84BC0F8C030A74AC0F8C420A846C0F8C88039
:204A9400D0F8B010C0F8CC8000F1B00609B140468847A14D0C22CDF82080414605F128009A
:204AB4000CF0DCFB41F270739C4F2B63688DEF6240F019006885FEF7E3FCA86009F0A0F897
:204AD40005F18400E060AF68964C41466662F520A76012F07BFC944F0D200E26787007F107
:204AF4000C01BE7007F118000AF014FBB860787812F046FA00280CBF08264646B87812F025
:204B14003FFA08B946F010068849B86812F0BBFC8749C82207F124000FF048FA8548AB46BC
:204B34007860102E10D1606A70B1C26862B1FF208DF810004FF6FF77ADF8127004AEADF855
:204B5400147096E8030090477B4D05F1140005F108010AF0DFFA6860404612F0CBFC4FF06B
:204B7400020A4746AE1E814606F8028F384686F801A012F009FD014668684A46C9B210F09F
:204B94001BF97F1C022FEFDB6C4905F120004FF4FA720FF00BFA6A4D05F1080029460AF0BB
:204BB400B9FA6860606A002846D00769DFF894916FB1009449460CA80A68898802600CAE5C
:204BD400818096E8030001234246B847606A002832D0C26852B149460CA80B688988036049
:204BF4000CAF818097E803009047606A20B3076917B306208DF80800ADF80A000AAEADF8F6
:204C14000C8002AD009695E80300534642464546ADF82850B847666ABDF828007769A080BA
:204C340057B1BDF8280002AE401CADF8280096E8030052460AABB8472BA012F07DFAE82089
:204C5400032112F0C3FBE720092112F0BFFB606A062628B307691FB38DF818600425ADF891
:204C74001A5008A8ADF81C8006AB009093E8030042462B46B84718B9089D1935A8460FE06D
:204C94008DF818604046676AADF81A5006AE09907C69ADF81C8096E803002A4609ABA0479E
:204CB400CDF8208040460CF013FBE0200C2112F08DFB4F20032112F089FB5720052112F07C
:204CD40085FB4E20042112F081FB5920032112F07DFB11F0C5FD0BF10200012112F0E7F854
:204CF400FEF78AFFFCE7C04654492053656E736F7200C046A8FF0100D80B0000F01200501F
:204D14003C0C00206D4601005D4A010095F80000254D01005DD70000E01C002020BF02008A
:204D3400DC210020041B0020CC200020754E01005D6C0100DD6D010060210020E1FD00009F
:204D5400A8230020000C00002DE9F04F09AFADF13C0D08900A92388809911E46ADF81800A5
:204D7400101C08BF002000F07581017800274FF0010B401C4FF0FF39B846DA460A9061E16E
:204D9400252940F056810178401C0A902D2918BFADF8068004D10178ADF806B0401C0A9044
:204DB40030291CBF4246434604D10178401C5A465B460A902A29CDF800804D4617D104936B
:204DD40030680A9BCDF80890C01C20F00300001D306050F8044C1978002C009403F10100AB
:204DF4000A9018D5ADF806A06442009413E044460AE0600000EBC4004018A0F130040A985E
:204E140001780094401C0A90302901DB3A29F0DBCDF8089004932E2929D10178401C2A29AB
:204E34000A9011D13168CDF80880C91C21F00301091D316051F8045C002D48BF454601786A
:204E54002B46401C0A9011E0454643460AE0680000EBC5004018A0F130050A9801782B4626
:204E7400401C0A90302901DB3A29F0DB02930AB1224604926C2904D04C2918BFADF8048099
:204E940004D10178ADF804A0401C0A900BA8CDF80C800FAB07906429059300F08280692973
:204EB4007FD0BDF818C075296DD0782969D06F2965D070294ED063293ED0732922D00A98FF
:204ED400401E0A90099801281AD966490C68B5F1FF3F03D0A84288BF6D1C05D86FF00041F8
:204EF400814294BF0D1C099D029508A80AA932466B46A04709993F18091A0398099165E019
:204F1400454617E03068C01C20F00300001D306050F8040CBCF1010F014608B94FA0014674
:204F3400079112F0E1F80390B5F1FF3F4FD0A8424DD9039528464AE03068C01C20F003008D
:204F5400001D306010F8040C8DF82C005D46039558463CE0082035680490E81C20F0030062
:204F7400001D306050F8041C082210230FA80CF031FE401E079040210170079823E0082335
:204F940002E0102300E00A233068C01C20F00300001D306050F8041CAA42BCBF2A1C0492FC
:204FB4000DE03068C01C20F00300001D306050F8041CAA42BCBF2A1C04926FF009030FA8EF
:204FD4000CF008FE07900599081A0390009C241ABDF8065000945DB906E008A8202109AAB8
:204FF40010F09CFE7F1C009C641E0094F5D50398401EB0F1FF3F03900FD1BDF806000128BD
:205014001CD10098401E009018D408A8202109AA10F084FE00987F1CF4E70798017809AA1E
:2050340008A810F07BFE0798401C079003987F1CDEE708A809AA10F071FE7F1C0A9801781E
:20505400401C0A9000297FF49BAE089808B14146017038460FB0BDE8F08FC046286E756C32
:205074006C2900C0400C0000BA482DE9F84F0025B94CB749056094F8E200002800F0638123
:20509400012800F02F81B54E02283CD0032840F05A8151F8250CD4F8B8100029A0F5C060D8
:2050B400C4F8D400B8BF49420028B8BF4042814226DA4FF08057D7F8A4014568B4F8BC00C7
:2050D40030214FF47F42082300903046A847D7F8A4014568B4F8C00004214FF4F802122323
:2050F40000903046A847D7F8A401B4F8D070456820214FF440620A2330460097A847012525
:2051140084F8D8501AE151F8258C12F0A4F92F4600B901273946924F38680028FCD0B14602
:20513400012609F10409D9F82CA03E6009B112F098F9CAF30720C4F8BC0012F08CF9AA46D2
:2051540000B9B2463B68002BFCD0D9F800B0BAF1000F3E6001D012F084F9CBF38440C4F889
:20517400C00012F078F9AA4600B9B2463B68002BFCD0D9F81C90BAF1000F3E6001D012F005
:2051940070F9C9F38120C4F8D000B8F5C061C4F8B81000F09C8094F8D80068B9C4F8D41026
:2051B400D4F8C000C4F8C800D4F8BC70C4F8C470D4F8D030C4F8CC30D4F8D400D4F8BC3007
:2051D400002854BF02226FF0010204F1C8010F6800EB40008018421000EB927207EBA2002D
:2051F4000860D4F8C810C4F8C43000291CDD1E293CDDD4F8CC0030B93429B4BF15391E217F
:20521400C4F8C81025E02A29BABFD4F8C8000B381E20C4F8C800D4F8C4003F28B4BF401CB6
:205234003F20C4F8C4001FE0D4F8CC00032812D011F10B0FC6BFD4F8C8000B30301CC4F85F
:20525400C800D4F8C4000028C4BF401E051CC4F8C450032508E011F1150FC6BFD4F8C80099
:205274001530301CC4F8C800C4F8CC504FF08057D7F8A401B4F8C43030214FF47F42456801
:20529400364800930823A847D7F8A40104214FF400321123456831480096A847B4F8C8600E
:2052B400D7F8A40104214FF4F802122345682B480096A847D7F8A40120214FF440620A2363
:2052D400B4F8CC60456825480096A84701E084F8D85040F2FF50404502D8801C40452DD2BE
:2052F40008202EE051F8251C1E4F4BF2F5204843060A3868C0F3814001280AD110F0A0FDCB
:205314000FF066FB12F0B3F83111C010484306EBE03694F8E50030B91348006820F07F40DC
:205334003618760801E084F8E5501048310C0660012741600E4D8760287808B90B2000E089
:20535400052084F8E40003F013FEBDE8F88FC0462D400C402C500C40F019002000A00C40E8
:2053740000800C40B43F0050102009403C600C40350B00002DE9F04F0546ADF11C0D12F000
:20539400A8F9AA4FAA4C012D069000F0EA8011F0D3FC002800F0E1809D480078002840F04D
:2053B400DC809C480078002840F0D7809A480078002840F0D28099480078002840F0CD8070
:2053D40097480078002840F0C88096480078002840F0C38094480078002840F0BE80384669
:2053F40021460F78006A002F00F13C0040F0B580904C0068257880476168DFF830B2DFF87F
:205414003C82AF00401AB0FBF7F6E068A1680027BA46524681464E4572EB0A0201DA8142A8
:2054340006D83A4650468E42904145DA084600E03A460146891B4FEAE573BA4108461146DA
:205454002A4611F0CDFC4FF47A72002306460F460CF088FB0BF0F2F8534600F6FC024FF0DB
:205474000001B61A9F417042B94122DA72480268394630460CF076FB0F4606464FF0000158
:205494007042B94115DA11F0F5FA0546206912F052F910B1206911F0FBF8284611F0DBFCC8
:2054B4002069314612F0F0F9206912F0E9F9002000E00120444620704446207800284CD1DE
:2054D400002738460CF0FEF900B10127C146384600284FF000073ED15548007800283AD1FD
:2054F400DBF82000564C436CA068022102AA98479DF8080078B3534DDBF82020A06895F98D
:2055140000103E4611F1020F18BF01264FF0010836B1926B95F900109047DBF82020A06816
:20553400494E96F9001011F1020F03D0926B96F9001090476FF0010030703D4B287038462A
:2055540083F8008011F0B4FEDBF82000C169A06888478BF8017089F8007006981AF0E0F92F
:2055740053E001200CF0AEF906981AF0D9F92078012839D1012011F09BFE10F043FE60BBC4
:2055940012F0A7F8002502268146DFF8C080386AA8F80250416E267002A888470295386AA0
:2055B4008DF80C602D4A2A4BD0F850C0294630468DE803001068414602AAE047002801D5F5
:2055D40012F050F82349464691F90000FE60401C087048461AF0A4F906E02078012803D109
:2055F4000020207011F0B4FB10F00CFE68B92078194D022803D1287808B112F033F82878EA
:20561400012802D020780228FCD007B0BDE8F08FFD2D0020FF2D0020012E0020FE2D0020E2
:20563400CE230020CF230020D0230020701F0020DA23002004230020300C0000002E002083
:2056540010220020CC230020CD230020081C0020091B0100D6230020D923002018220020CD
:205674002DE9F04FA54E814606F120000068416EADF12C0D03A88847AD4CE76817B911F06F
:20569400F1FFE7684FF00008388979689A4BCDF81C80C500097818781035890906D340F6CC
:2056B400485191FBF0F16D1805F5AF754543387D35280CBF47464FF4FA570DF12601E8207A
:2056D4000EF06AFF9DF82600032808BF44F62067E068007D07EB8505352803D1D4F8E403BC
:2056F400804745430220B3468DF82000864FDBF82000069507F10803826E186806A990472B
:2057140001207F497F4D087029788BF80080012901D0FFF72FFEE0680589466810F038FFCB
:205734003088000935D394F88073E1688FB34B6A4F6E986AB0F1FF3F25D027B3421C9A6206
:205754008862030E07F80139E06890F82A0007F80109E06890F8290007F80109E06890F82C
:2057740028003870E268106A00950190801B281A80B20290916A506A92F88C203346153011
:2057940008F078F900E0DB20D4F8C473002840F0A680294630460AF0D9FF642009A90EF045
:2057B400FBFE5A4894F88073007837B994F82F0408F09CFE012805D08DE008F097FE0128E1
:2057D40040F08980DFF848A1A81C87B20DF125010AF170000780E9200EF0DEFE9DF825000C
:2057F400012805D13D46C5F3022040F0180005E02D1DADB2C5F3022040F0080006F8010D45
:2058140006F8015D55469DF82400A5F862800028EE670CBF3F484048CDF80C8002238DF8F3
:20583400103005F12806A6F80280C5F8B80005F16007B86195F83500A5F8468020F00F00A1
:2058540040F0030085F8350011F043FFDFF8CCA00A90B9F1010F1DD0B9F1040F1AD0B9F137
:20587400000F14D0B9F1050F0ED0B9F1030F08D194F83F040FF048FBC07B022818BF3E1C49
:205894000AE005F1600607E0DFF894A004E005F1440601E005F12806DBF820001A4B046DCA
:2058B40002278DE880019868314603AA5346A0471C49002808800BD41B4991F9000060359A
:2058D400401C08700A98CBF80C501AF029F80FE00A981AF025F81A200BF00CFA08E0002FEA
:2058F40008BFE420F8D0114880F80080E420B8470BB0BDE8F08FC04604230020701F0020D2
:20591400CF230020D9230020102200206F1F0020081C00204E9055550E7A55557D9F00002B
:2059340049D3000044220020D6230020012E0020080200202DE9F04FAC4C07460020ADF1C7
:205954003C0DDFF8A482ADF80C0004F10C0000688946017D252900F00281703005A903F084
:205974006FF9002818BFC0B240F03B8101A804A90CF09EF90FF01CF9042814BF41F2081502
:2059940043F2C82504A901A80CF092F998F82B2201993B684FF47A7A504650430AFB110064
:2059B400C01A8542C0F2D880D8F80422521A0AFB02F1C91A8D4200F3CF808542A34609DD44
:2059D400002807DD95FBFAF04FF4916100B201FB003038609DF81F00002857D042F2040047
:2059F4000DF136010EF076FA11F062FF0699441A42F206000DF135010EF06CFA9DF83500F5
:205A14009DF81D10FF2804BF0A208DF83500FF2908BF0A219DF835609DF81C507448B4FB32
:205A3400F0F2701884B25646A81054437043A04298BF041C41F20810241805A810F02BFB61
:205A54009DF81C103D68B0FBF1F24A43821A714392B272438B1A891A5B1B491B8C4201D99E
:205A7400002908D56142994212D2002B10D5B4FBF6F109B203E06100B1FBF6F189B23A6895
:205A94004FF4916303FB01253D6001E03D68002006460DF1120102A80CF00AF90298D8F8E4
:205AB40004120024B5FBFAF280180290814203D998F82B32834202D998F898712FBB9DF88E
:205AD4001C00B6180004B04298BF361A9DF81F00002808BF9DF8200024D09DF81C00B6FB7D
:205AF400F0F085B2BDF833000EF0D0F99DF83120014628460EF00EFB054610F0B9FA0246E4
:205B140008A928460EF00CF90CE0814204D8BDF81200401CADF81200BDF8120098F89B11E7
:205B34000BF098FE89F8000088F8F501DBF80C00007D052811D19BF8150470B999F80000F8
:205B540003A9ADF80C0042F20C0003F0D1FDBDF80C00A8F8F00100E06524204641E00FF092
:205B740027F8042814BF41F2081543F2C825214800784FF47A7404FB00F13868491BA1F5E5
:205B9400FA62824206D2A1F57A61B0FBF1F24A43801A386068460DF10E010CF089F8386863
:205BB400009998F82B2204FB010154430091611A8D4211DCA4F5FA648C42BCBF00F5FA606C
:205BD400386098F89B11B8F878010BF043FE0146002089F8001002E099F80010652088F8F8
:205BF400F5110FB0BDE8F08FCC14002008020020A0860100F71600202DE9F04F00289A46CD
:205C14001446ADF1340D00F0F38011F47C1F40F0EC8011F00F0F00F0EB800746002006901B
:205C340005910B904FF000090A904FF0010B09904E46CDF810B0069D08964846079005983D
:205C540005990BEA000021EA0B014FEA4B0B401E059100F0AB80401E70D0801E5DD0001F60
:205C740040F0BE8042F205000DF10E010EF032F99DF80E60002E00F0B3801CB1276694F8F9
:205C94006B0006900720152607F8010B022301A907F8016B42F2010007F8013B0EF01AF9C7
:205CB400684603A90CF004F806980CF017FE0146019A00983E4640180090824206D8801AAD
:205CD400BDF80C300090581CADF80C00009B50084946804609041804030C194300044B4699
:205CF40010EB080041EB090109F046FF0090BDF80C309DF80C009DF800209DF8011006F89E
:205D1400010B181206F8010B9DF8023006F8012B9DF803200935BF1D42E00220152607F8EE
:205D3400010B042307F8016BBAF1000F07F8013B0CBF09989AF800002D1D4EE01CB1E7652D
:205D540094F86B00069005201526049B07F8010B0DF10F0107F8016B42F2040007F8013BAC
:205D74000EF0B8F802A80EF0B7FF06980CF0B6FD02999DF80F609DF80F30069AED1D401841
:205D9400000200EB6600B0FBF3F03E4602903F1D06F8012B9DF808109DF809309DF80A2038
:205DB40006F8011B06F8013B327018E00320152607F8010BBAF1000F07F8016B034607F80B
:205DD400013B04BF0B9807F8010B05D09AF8000007F8010B9AF801006D1D07F8010BADB209
:205DF400059800287FF42BAF61E011F00F0F01D000205DE080468A4602254FF4803908F13D
:205E1400020609EA0A002AEA090A4FEA4909B0F580301AD0B0F5803014D0B0F500300ED08C
:205E3400B0F5802009D0B0F5002004D0B0F580102AD1072404E0062402E0052400E004241B
:205E5400002704E00224012701E001242746B01C214600F030F847B104F00F04C0F30A015A
:205E740041EAC42141F4004105E004F07F0400F0FF0141EA042106F8011B0912471906F859
:205E9400011B3618B81C85B2BAF1000FB9D1022DD8BF00250BDDA81E4FF6FE7708F8010BD6
:205EB400E819C0F3022040F0A00088F8000028460DB0BDE8F08FF0B504460846ADF16C0D05
:205ED400401E70D0401E0DD0801E00F00981401E00F0EF80401E00F0E180401E00F0AD80D6
:205EF400002042E142F2010007A90DF0F3FF42F20B0008A90DF0EEFF42F206000DF16501FF
:205F14000DF0E8FF42F207000DF166010DF0E2FF42F2050019A90DF0DDFF04A809F0AAF8F0
:205F340006460DF1670142F209000DF0D3FF9DF86700002808BF002503D002200FF08DFD01
:205F54000546204607A9042210F01EFE241D08A90222204610F018FEA71C9DF864009DF8A7
:205F740065309DF866109DF8674007F8010B9DF8672007F8013B2B4607F8011B610706F0E5
:205F9400070444EA916005F0030404AD40EA8410314607F8010B012400953846019405F014
:205FB400EBFE0A309AE042F206000DF165010DF091FF42F207000DF166010DF08BFF42F2AA
:205FD400040019A90DF086FF04A809F053F805460DF1670142F208000DF07CFF9DF8670014
:205FF400002808BF002303D001200FF036FD03469DF864009DF8657004F8010B9DF8666046
:2060140004F8017B9DF867209DF86770790704F8016B03F0030705F0070646EA916004AEB2
:2060340040EA8710294604F8010B002700962046019705F0A1FE001D50E042F2150011A975
:206054000DF048FF13AF42F2160039460DF042FF15AD42F2170029460DF03CFF17AE42F272
:20607400180031460DF036FF204611A9082210F08BFD083408222046394610F085FD04F1B7
:20609400080708223846294610F07EFD082207F10800314610F078FD202066E042F2140067
:2060B4000DF122010DF016FFBDF8221002200A1258E009A8002120220BF0D0F842F213001E
:2060D40009A90DF007FF09A811F00EF8024609A9204610F059FD09A811F006F880B244E083
:2060F40042F20E0002A90DF0F5FE0DF10A0142F20F000DF0EFFE0DF10B0142F20A000DF034
:20611400E9FE03A942F210000DF0E4FE0DF10D0142F211000DF0DEFE0DF10E0142F2120038
:206134000DF0D8FEBDF808009DF80B209DF80C709DF80D609DF80E509DF80A1004F8010B3E
:2061540002F00102001204F8010B07F0010042EA400206F0010042EA800205F0070042EAE9
:206174004012042004F8011B22701BB0F0BD70472DE9F04F044609AF9A4691468846ADF142
:20619400140D019411F0A5FA98490D680290A54208BF4D68974C6FF0010B35B105F18000A0
:2061B40011F025F8002840F00F810FF0BFFF061C00F0158104F1B40011F081FAC6F80C80F1
:2061D400B4F98C0099F80430401C86F83E306FF31F30A4F88C00C6F808A0B4F88C00019A53
:2061F400B0878348326197E80C004FF0000B2021DC4606F118071940104087E8030006F196
:20621400200383E80018C6F834B062463263D9F80800B06386F83F20D9F80070009207B191
:20623400776398F80C0000F00F00022804BFD8F808003063082740464368002B18BF002FEC
:2062540040F0BE8000886FF30900B0F5305F18BF022006D196F83F0040F0100086F83F00FB
:20627400082006F1180191E8800106F1180342EA080240EA070183E80600D4F8F80001998F
:20629400814207D194F80401410824BF00F0FE0084F80401002D70D0039504F1700101981F
:2062B4000D6888460FF0C2FBB1465F465FEA000A0FD1D8F800202AB1D4F8801030460AF065
:2062D40099FD18B9BAF1000F03D103E001275D4630E0554645B12A68304629460AF08AFD6E
:2062F40038BB002A1546F6D1039831460CF066F9051C02D0A9451AD1E5B9D9F80C10D8F8B7
:206314000450087B00F00F00022813D1087BC01140080FD2002D4AD1D4F8800050B1D4F8A7
:20633400801030463A460AF065FD18B93FE0082700E00227BB46BBF1010F04D104F1700048
:20635400494610F022F8BBF1020F0BD12F682A6804F170001FB9494610F006F802E0494683
:206374000FF0F1FFBBF1080F04D196F83E10284610F0CBF93BF0080004D104F17000314690
:206394000FF0F2FF1BF1030F11D096F83F00B6F93CB0009940F0800086F83F00019F87F86D
:2063B400A410206F86421AD10CF03AF917E0B4F98C0000F6FF706FF31F30A4F88C0003E053
:2063D4007F1E1846FFB237E794F8040140F0040084F8040101986FF0020BC4F8F800029846
:2063F40019F09EFA584605B0BDE8F08F60250020FFEFFF9F882400202DE9F04142F20400F5
:20641400ADF1280D0DF123010DF064FD42F205000DF122010DF05EFD42F2010069460DF082
:2064340059FD884C88489DF82310C4F8A80164204143C4F8A0118549C4F8C4119DF8221086
:206454004843C4F8BC018248824EC4F8E001B07888B342F203000DF106010DF03BFD0FF01A
:2064740007FE05460DF1060029460CF073FE2D1A9DF8220084F89B5170B1009860B104F5AF
:20649400DC700DF0BBFC04F5BA7009F057FE012084F8940184F8980142F202000DF10601F5
:2064B4000DF018FD0DF106000FF0A2FF04F5CE700DF0A4FC11E042F202000DF106010DF015
:2064D40009FD0DF106000FF093FF04F5CE700DF095FC04F5BA700CF041FC96F83F040EF01D
:2064F40013FDC07B022804BF012084F8F401E68994F8F801002840F0A18004F12800002113
:2065140038220AF0ABFE06EB86060025B0B2A581064609F07BFF04F128074FF00108206194
:2065340010B911F0D0F82069324629460AF096FE49484A4EE06307F1080066630DF05EFC2B
:2065540042F21B0001A90DF0C5FCBDF8040001A9A4F84C0042F21C000DF0BCFCBDF8040067
:2065740001A9A4F84E0042F21D000DF0B3FCBDF8040009A920835D200EF00EF89DF824002E
:2065940000280CBF84F85C5084F85C80B4F84C0040B100EB401080B209F038FF606508B968
:2065B40011F091F8B4F84E0048B1410001EB800188B209F02BFFA06508B911F084F8278B4A
:2065D40047B1F80080B209F021FF606108B911F07AF8278B22490DF11A00082210F0D4FA4A
:2065F4004FB1666930460DF11A01082210F0CCFA08367F1EF6D1B4F84C70658357B1606D72
:206614004FF6FF720146A0F81F207F1E8D7701F12100F7D1B4F84E704FB1A06D4FF6FF71EA
:20663400024681807F1ED57002F10600F8D1201D294606220AF012FE84F8F8810AB0BDE827
:20665400F081C046CC140020D53A01006DC10000257601000802002035B50000002A75150D
:206674006C0100002DE9F0410D46934CDFF854C2DFF84C82A188D128074613DCDFF848E22F
:20669400D12800F0A480713800F0E780401E00F0E080401E00F0D780113810D04C3800F0E9
:2066B400B28007E0D2387BD0401E61D0401E34D0401E2BD0384610F088FDFF2802D1F420FD
:2066D400BDE8F0817D4C04EBC004217909B9E08860B1E088884208BFFB2000F0EA802A782F
:2066F400914200F399809042C0F2968010F0F1FF2778628806464046A0F1380178182946F9
:2067140010F042FA304619F00BF9D1E02978022980F2828040466C1C71E0288881427BDD8B
:206734006746AA88D7F820338100860001EB001106EB0016D7F820035A52E988D7F8203308
